:020000040800F2
:1000000028270020B501000861340008B52F00083A
:1000100005340008D9040008694100080000000008
:10002000000000000000000000000000713A00081D
:10003000250700080000000051380008F93B0008BF
:10004000CF010008CF010008CF010008CF01000850
:10005000CF010008CF010008CF010008CF01000840
:10006000CF010008CF010008CF010008CF01000830
:10007000CF0100086D050008790500088505000816
:10008000910500089D050008CF01000851410008B6
:100090005D410008CF010008CF010008CF01000832
:1000A000CF0100082D3C0008CF010008CF01000857
:1000B000393C0008CF010008CF010008CF0100083B
:1000C000CF010008CF010008CF010008CF010008D0
:1000D000CF010008FD400008194100083541000823
:1000E000CF010008CF010008CF01000800F002F89E
:1000F00000F050F814A696E8000CB244B344DA4578
:1001000001D100F047F8BAE80F000FA696E83000DA
:10011000A5EB040504EB0607AAEB0704A7F101070A
:100120004FEA15154FEA3414A4F10104AC4201D38F
:1001300000F030F813F0010F18BFFB1A43F0010371
:1001400000F001F8DBE71847BC680000DC6800003D
:10015000103A24BF78C878C1FAD8520724BF30C8F3
:1001600030C144BF04680C60704700007047000055
:100170000023002400250026103A28BF78C1FBD8B0
:10018000520728BF30C148BF0B6070471FB51FBD65
:1001900010B510BD00F020F91146FFF7F7FF04F08D
:1001A0007BF900F03EF903B4FFF7F2FF03BC00F067
:1001B00045F900000948804709480047FEE7FEE787
:1001C000FEE7FEE7FEE7FEE7FEE7FEE7FEE7FEE707
:1001D00004480549054A064B70470000293C0008C1
:1001E000ED000008282100202827002028230020D7
:1001F0002823002053EA020C00F069802DE9F04B1F
:100200004FF00006002B1FBFB3FA83F503FA05F485
:1002100024FA05F65E4012BF1643B2FA82F502FADE
:1002200005F4C5F120051EBF22FA05FC44EA0C04C2
:10023000203556EA044C4FEA144418BF641C4FF0B2
:1002400000084FF00009904271EB030C39D30029EC
:1002500019BFB1FA81F701FA07F6B0FA80F700FA90
:1002600007F6C7F120071EBF20FA07FC46EA0C0676
:100270002037B6FBF4FCA7EB0507103F07F01F0B78
:10028000CBF120062CFA06F60CFA0BFB44BFB34662
:100290000026202FA4BF5E464FF0000B5BEA060C41
:1002A00008BF4FF0010B19EB0B0948EB0608ABFB3D
:1002B000027C06FB02CC0BFB03CCC01B71EB0C01D8
:1002C000C1E70B46024641464846BDE8F08B13B5F0
:1002D000084318BF4FF0FF300146AFF30080BDE880
:1002E0001C407047032A40F2308010F0030C00F0ED
:1002F000158011F8013BBCF1020F624498BF11F860
:1003000001CB00F8013B38BF11F8013BA2F1040218
:1003100098BF00F801CB38BF00F8013B11F0030390
:1003200000F02880083AC0F0088051F8043B083AF1
:1003300051F804CBA0E80810F5E7121D5CBF51F896
:10034000043B40F8043BAFF30080D20724BF11F810
:10035000013B11F801CB48BF11F8012B24BF00F875
:10036000013B00F801CB48BF00F8012B70477047F4
:100370007047704710B5203AC0F00B80B1E81850B4
:10038000A0E81850B1E81850A0E81850203ABFF47F
:10039000F5AF5FEA027C24BFB1E81850A0E818501E
:1003A00044BF18C918C0BDE810405FEA827C24BF72
:1003B00051F8043B40F8043B08BF7047D20728BF00
:1003C00031F8023B48BF11F8012B28BF20F8023B4F
:1003D00048BF00F8012B7047754600F02BF8AE4679
:1003E00005006946534620F00700854618B020B541
:1003F000FFF7EEFEBDE820404FF000064FF000078B
:100400004FF000084FF0000BAC46ACE8C009ACE878
:10041000C009ACE8C009ACE8C00921F007018D466D
:10042000704710B50446AFF300802046BDE8104089
:10043000FFF7B9BE0048704710000020014918209E
:10044000ABBEFEE72600020070470000B0B54820B2
:1004500000F036F900F042F840F6B830C2F2000081
:1004600001F048FD40F69040C2F20000016840F201
:100470005814CA68C2F2000442F01002CA60214651
:10048000132202F083FC40F64840C2F200000168EB
:10049000CA6842F01002CA6004F11801152202F085
:1004A00075FC40F20824C2F2000440F2D01500218D
:1004B0000022D4F81805C2F20005C4F24841CCF27B
:1004C0004842C5E9011206F09FF80146204629611D
:1004D000BDE8B04002F070BDFEE7000010B58AB084
:1004E0000E2040F6F414099001200021C2F200040D
:1004F0000890CDE90610CDE90011CDE90211CDE952
:1005000004116946204600F081F9204600F0BAFC4B
:100510002046022100F00EF90AB010BD0188013119
:1005200089B2642928BF64210180704710B582B068
:10053000DDE904EC140A8DF801201A0A8DF8022076
:100540004FEA1E228DF804204FEA1C228DF8062067
:100550006A468DF800408DF803308DF805E08DF87F
:1005600007C003F037FF02B010BD000040F62C308A
:10057000C2F2000000F040BD40F66020C2F2000070
:1005800000F03ABD40F61C20C2F2000000F034BD7D
:1005900040F6A420C2F2000000F02EBD40F6E82094
:1005A000C2F2000000F028BD70B582B041F2040331
:1005B000CEF20003196840F2A8160091C2F20006BC
:1005C000009902683468009D0560186801900198E0
:1005D0003369984202D2F0680130F060881A06F060
:1005E0002BF80546204606F027F80146284605F078
:1005F000F9FE0199316102B070BD00002DE9F047AC
:1006000082B041F20400CEF20000016840F2A81A64
:1006100000910068C2F2000A01900199DAE9030230
:10062000002791423CBF0130CAF80C000199002319
:10063000CAF81010009E4FF0FF31E0FB0167DAE9C5
:100640000049DAF80880304639462246CAE906678A
:10065000FFF7D0FD0546A0FB040201FB0421341A7C
:1006600067EB0106204631464A460023CAF820506F
:10067000FFF7C0FD87B2AAF8240007FB09F0201A93
:1006800066F1000142460023FFF7B4FD04464FF433
:100690007A7005FB0070AAF8264005F0CDFF0546EC
:1006A000A0B205F0C9FF41F26F21C3F6832106F025
:1006B0003FF8294605F0FEFD02B0BDE8F0870000D6
:1006C00010B54EF6FC5CCEF2000CDCF8002044F2D3
:1006D0004023C0F20F0342F08072584344F6D353D4
:1006E000CCF8002041F20002C1F26203CEF2000217
:1006F0004FF0000CA0FB033EC2F804C04DF683612E
:100700001368C4F21B31A0FB011443F00101116016
:1007100040F2A811C2F200014FEA9E12A30C81E838
:100720000D1010BD70470000EFF3108072B600BFCF
:10073000FEE7000090F82020013A012A08D800685E
:1007400000F114020020136819431160704700BFC4
:1007500000F1240201204FF4802113681943116035
:100760007047000010B590F820E0D0F800C0AEF15E
:10077000010EBEF1010FDCF808E011D81EF0E05FB9
:1007800018D0CEF3016E012000FA0EF018608B68CD
:10079000D3B14868CC6844EAC000034318E000BF06
:1007A00000F1240101204FF480220B681A430A60F3
:1007B00010BD00BF00F1240101204FF400120B68AE
:1007C0001A430A6010BD00BF0868CB6843EA405373
:1007D0000CEB0E10C0F880310B69C0F88431097D34
:1007E000012905D100F5C2710B6843F480730B60D9
:1007F0005168C0F88C11126800F5C071C0F88821EA
:10080000002001220B681A430A6010BD026890F8AC
:100810002030013B012B29D8B0B5D2F800020123CA
:1008200040F00100C2F80002D1F814E0CC690EF0EB
:100830001F0003FA00F0D2F81C326FEA000C834369
:10084000012CC2F81C3217D06CBBD2F80C3203EA70
:100850000C03C2F80C32CB688C8844EA034302EBE9
:10086000CE04C4F840320B4615E000BF416A41F4A3
:100870008021416201207047D2F80C320343C2F854
:100880000C320B688C8844EA034302EBCE04C4F8B4
:10089000403201F10C038C681B8843EA044302EBED
:1008A000CE04C4F84432D2F804328D6943EA00041D
:1008B000D1F810E0096A002D08BF03EA0C04C2F861
:1008C0000442D2F81432BEF1000F43EA000408BF1C
:1008D00003EA0C040129C2F8144204D1D2F81C1214
:1008E0000843C2F81C02D2F8000220F00100C2F84E
:1008F00000020020B0BD00007047000010B590F865
:100900002040013C012C7BD8D0F800C000290CBF4E
:10091000DCF80C40DCF81040A4077BD00CEB011C89
:10092000DCF8B0410CF5D87E14F004049460DCF8D7
:10093000B04119BFE4085460640D1460DEF8004053
:100940000CF5DA7E04F00204D460DCF8B44124072C
:100950005ABFDEF8004004F00F0408241461DEF8EA
:1009600000400029C4F307249461DEF800404FEAF8
:1009700014445461DCF8B8211A70026802EB0112C9
:10098000D2F8B8214FEA12225A70026802EB011223
:10099000D2F8B8214FEA12429A70026802EB0112B3
:1009A000D2F8B8214FEA1262DA70026802EB011243
:1009B000D2F8BC211A71026802EB0112D2F8BC21F4
:1009C0004FEA12225A71026802EB0112D2F8BC21DE
:1009D0004FEA12429A71026802EB0112D2F8BC216E
:1009E0004FEA1262DA7100680CBF00F10C0100F1ED
:1009F0001001002020220B681A430A6010BD00BFBE
:100A000000F1240101204FF480220B681A430A6090
:100A100010BD00BF00F1240101204FF400120B684B
:100A20001A430A6010BD00002DE9F04F81B0044662
:100A300000684669D0F804908768D0F80CB0D0F808
:100A400010A0D0F81880F10704D1002530071DD47C
:100A500024E000BFF90710D00121BA07816009D452
:100A6000780700F1AF80380700F1B680204600F02B
:100A700037FA02E0204600F035FA0025F80500F1CB
:100A80008780F80300F1B180300707D51BF0100014
:100A900004D0206845F400751021C160700708D5A6
:100AA0001BF0080005D020680821C160204600F036
:100AB000B3F9B00706D52068C068800702D0204689
:100AC00000F0ACF9700607D51AF0100004D02068C9
:100AD00045F4806510210161B00608D51AF00800C0
:100AE00005D0206808210161204600F0C5F9F00614
:100AF00006D520680069800702D0204600F0BEF9C4
:100B0000B00308D519F0100005D02068102141600D
:100B1000204600F0B5F9F00308D519F0080005D01B
:100B2000206808214160204600F0E6F9300440F1D9
:100B30009B805FEA497040F1948006F4807008EA77
:100B4000102028435FEA8871014648BF41F0020146
:100B5000B20558BF01465FEA48700D4648BF45F0F0
:100B60000405700558BF0D46300540F17A8018F035
:100B7000700000F076801038000905286CD8DFE896
:100B800000F003595D61656945F0080564E000BF48
:100B900020684FF48071BA0581600BD4780515D4B4
:100BA00038051DD4204600F09FF9F8037FF56CAF9F
:100BB0001BE000BF204600F099F9F8037FF564AF11
:100BC00013E000BF4FF4006558E700BF05F500557E
:100BD000F8037FF559AF08E04FF480554EE700BFAA
:100BE00005F58045F8037FF54FAF20684FF480315D
:100BF000BA0381600AD4780310D4380314D4204691
:100C000000F076F930073FF541AF47E7204600F0A6
:100C100071F930073FF53AAF40E700BF05F50045F1
:100C200030073FF533AF39E705F5803530073FF53D
:100C30002DAF33E745F010050EE000BF45F020056D
:100C40000AE000BF45F0400506E000BF45F0800522
:100C500002E000BF45F480752068816921F07001D1
:100C6000816120680421416055B1606A40EA050154
:100C70002046616201B0BDE8F04FFFF73DBE00BF06
:100C800001B0BDE8F08F0000002804BF01207047CC
:100C9000B0B5044690F8200010B9204600F06EF878
:100CA0002068016841F00101016000F01FFC054669
:100CB00020684168C90705D100F018FC401B0B28CB
:100CC000F6D310E0016821F00201016000F00EFC93
:100CD000054600BF2068416889070DD500F006FC75
:100CE000401B0B28F6D3606A052140F40030606297
:100CF000012084F82010B0BD217E0268012922F075
:100D0000800208BF80320260617E0268012922F001
:100D1000400208BF40320260A17E0268012922F031
:100D2000200208BF20320260E17E0268012922F021
:100D3000100218BF10320260217F0268012922F0E0
:100D4000080208BF08320260617F0268012922F0B0
:100D5000040208BF04320260D4E901C2D4E90335B9
:100D600061691A432A431143ACF101021143C16185
:100D700000200121606284F82010B0BDB0B586B0BB
:100D800040F60004C4F201040068A4F524420021E6
:100D90009042059102D006B0B0BD00BF41F21800EC
:100DA000C4F20200426802AD42F000724260426842
:100DB00002F000720192019A026842F0040202609D
:100DC000006800F00400019001984FF40060CDE944
:100DD0000201012004902046294600F071FA4FF4E8
:100DE000805002900220039003200590204629465F
:100DF00000F066FA13200521002200F031FC1320D8
:100E000000F01CFC14200521002200F029FC142015
:100E100000F014FC06B0B0BD7047000010B58AB0F9
:100E200003AA01AB00210446FFF768FD206846F2E3
:100E30000041C4F20001884202D00AB010BD00BFD8
:100E4000039940F20520814240F20820C2F20000DE
:100E500006D040F206229142EFD100F5C86401E0CD
:100E600000F5A06401A9204602F0CEFA204602F067
:100E7000DFFA0AB010BD00007047000070470000A4
:100E800070470000B0B5044690F8200001281DD13D
:100E9000022084F820002068016821F0010101602F
:100EA00000F024FB054600BF20684068C00713D04F
:100EB00000F01CFB401B0B28F6D3606A40F40030A6
:100EC0006062052084F820000120B0BD606A40F413
:100ED000002060620120B0BD00206062B0BD000053
:100EE0007047000070470000704700007047000026
:100EF000704700007047000070470000014690F8FE
:100F00002100022816D10868D1E90FC3026822F037
:100F10000E020260026822F001020260012000FA63
:100F200003F2CCF8042081F821000020002281F88F
:100F300020207047042088630120002281F82020AF
:100F40007047000090F82110022923D1026811682F
:100F500021F00E0111602F211368C4F202018A42B0
:100F600040F20401C4F2020123F00103136015DD15
:100F70003023C4F202039A421CD04423C4F2020379
:100F80009A421BD05823C4F202039A421CD14FF458
:100F9000803321E004218163012070470823C4F2DB
:100FA00002039A420ED01C23C4F202039A420BD1D0
:100FB000102311E04FF480730EE000BF4FF4805314
:100FC0000AE000BF012307E001F1680C4FF08073D5
:100FD000624508BF4FF480130B60012180F8211097
:100FE000426B002180F8201022B180B5904700218B
:100FF000BDE880400846704710B5D0E90FCE0168C3
:10100000DCF800300A6823FA0EF35C072AD512F0E8
:10101000040427D00A68920603D40A6822F0040266
:101020000A602F22C4F20202914240F20402C4F28A
:1010300002025BDD3023C4F20203994272D04423E2
:10104000C4F20203994273D05823C4F202039942B6
:1010500040F07A804FF480231360C16A002940F089
:1010600098806FE09C0727D512F0020424D00A680C
:10107000920606D40A6822F00A020A60012280F869
:1010800021202F22C4F20202914240F20402C4F253
:1010900002023BDD3023C4F20203994260D04423B4
:1010A000C4F2020399425FD05823C4F2020399426A
:1010B00060D14FF4003365E01B0743D512F00802FE
:1010C00008BF10BD0A6822F00E020A60012101FA71
:1010D0000EF2CCF80420816380F82110016B00220D
:1010E000002980F8202054D12CE000BF0823C4F24E
:1010F0000203994222D01C23C4F20203994223D155
:1011000040231360C16A002943D11BE00823C4F2C5
:10111000020399422CD01C23C4F20203994229D124
:1011200020232FE04FF480631360C16A89BB09E07C
:101130004FF480431360C16A59BB03E0042313607A
:10114000C16A31BB10BD00BF02F168044FF080637B
:10115000A14208BF4FF480031360C16AC9B9F1E727
:101160004FF400730EE000BF4FF400530AE000BFDD
:10117000022307E002F168044FF00073A14208BFA8
:101180004FF400131360816A0022002980F82020A8
:10119000D8D0BDE810400847014600284FF00100B4
:1011A00008BF70472DE9F0470A684FF6F873CBF691
:1011B000FD7302EB030C4CF6CD43CCF6CC43ACFBF9
:1011C000033C6FF00307002607EA9C07C4F20206FF
:1011D00001F10C0AC1E90F670227D1E9013E9AE843
:1011E0003004D1E9069881F82170176843F6F0764B
:1011F000B7433B4343EA0E0323432B4343EA0A032B
:1012000043EA090343EA0803136000228A6381F872
:10121000210081F820200020BDE8F0477047000041
:1012200090F820C0BCF1010F04BF02207047F0B558
:101230004FF0010E80F820E090F821C0BCF1010FC2
:1012400026D14FF0020C80F821C04FF0000CC0F8FE
:1012500038C0D0E900C4C56AC66BDCF80070102C39
:1012600027F00107CCF80070006C0EFA00F07060F7
:101270000846CCF8043004BF10460A46CCF80800F3
:10128000CCF80C20DCF8000045B140F00E000DE079
:10129000002180F820100220F0BD00BF20F00400E3
:1012A000CCF80000DCF8000040F00A00CCF80000A8
:1012B000DCF8000040F00100CCF800000020F0BD98
:1012C0002DE9F04F82B00E68002E00F0FD8041F253
:1012D0000042C4F20102042340F2004E904208BFD3
:1012E00003234FF6FF7CC4F2010E00930024012378
:1012F000C1F2100C4FF0000A4FF0000944E000BFAB
:10130000012704F00C030F229A402BEA020207FA8D
:1013100003F34FEA9A051A4346F825204E6840F237
:101320000C45F202DEF8082054BF22EA080242EA25
:101330000802C4F20105CEF808202A68B30254BF9F
:1013400022EA080242EA08022A60B303DEF8042017
:1013500054BF22EA080242EA0802F303CEF804204E
:10136000DEF800204FF0010354BF22EA080242EAEF
:101370000802CEF800200E680AF1010A36FA0AF2D5
:1013800004F1040400F0A08003FA0AFB16EA0B083B
:10139000F1D04E68664511DC122E55D8DFE806F014
:1013A000340A444854545454545454545454545483
:1013B000544C5000D1F80C9046E000BF4FF6FF723D
:1013C000C1F2210296420FDC0022C1F211029642C4
:1013D0001AD00022C1F21202964215D00022C1F2A8
:1013E0002102964210D02FE00022C1F22202964242
:1013F0000AD00022C1F23102964205D00022C1F289
:101400003202964220D100BF8A684AB1012A14BF35
:10141000C0F814B0C0F810B04FF0080914E000BFD5
:101420004FF0040910E000BFCA6802F108090BE0A0
:101430004FF0000908E000BFCA6802F1040903E0A8
:10144000CA6802F10C0900BF22460646B8F5807F43
:1014500024BF203A043637680F25954027EA050552
:1014600009FA02F22A433260CA79D2067FF583AFC5
:1014700041F21803C4F202031A68AEF57E7642F018
:1014800001021A601A6802F001020192019A2AF020
:10149000030256F802B040F60002C4F20102904284
:1014A00010D040F60042C4F2010290423FF428AF4F
:1014B00041F20002C4F20102009F904208BF0227DD
:1014C0001FE700BF00271CE702B0BDE8F08F000057
:1014D000C26802EA0103914341EA03410161704796
:1014E000002A08BF090401617047000041F624206A
:1014F000C2F200000068704740F2000041F624216B
:10150000C2F20000C2F2000100780A6810440860CC
:101510007047000080B542F20000C4F2020001688A
:1015200041F010010160032000F0C6F80F2000F028
:1015300005F800F05BF8002080BD0000B0B586B073
:1015400041F21801C4F202010A68044642F4006242
:101550000A60096801A801F40061019101996946D6
:1015600000F09CF900F0D0F94DF68361C4F21B3114
:10157000A0FB01014FF0FF3000EB914140F67030CD
:1015800042F60042C2F20000C4F2010240F2E73328
:101590000025C0E90021C0E902530561856100F022
:1015A0000BFC054610B1284606B0B0BD40F67030C1
:1015B000C2F2000000F09EFC05460028F3D119207D
:1015C00000F03CF80F2C0DD81920214600220025F0
:1015D00000F046F840F20400C2F200000460284621
:1015E00006B0B0BD0125284606B0B0BD80B582B0BA
:1015F00041F21800C4F202000168002241F001012A
:101600000160016801F0010101910199416841F017
:101610008051416040680F2100F080500090009898
:101620006FF0010000F01CF80420C4F20100016812
:10163000022262F31A61016002B080BD002848BF37
:10164000704700F01F01012202FA01F11C2202EA98
:10165000D0004EF20012CEF200028150704700001E
:1016600010B54EF60C5CCEF2000CDCF80030C3F383
:10167000022E8EF00704042C28BF0424BEF10303BD
:101680004FF0FF3E0EFA04F438BF0023A143994007
:101690000EFA03F39A43114300F00F0200F1604386
:1016A0000901043A03F564436244002848BF02F18B
:1016B0000C03197010BD00004EF60C51CEF2000163
:1016C0000A684FF6FF031A4060F30A2242F0806076
:1016D00040F0FD7008607047002804BF012070478B
:1016E0002DE9F04381B042F20008C4F2020804463A
:1016F000D8F800000D4600F0070088420CD2D8F858
:10170000000020F007002843C8F80000D8F80000C7
:1017100000F00700A8426CD1206841F2040981075B
:10172000C4F2020917D5410705D5D9F8001041F4D4
:10173000E061C9F80010010705D5D9F8001041F49F
:101740006051C9F80010D9F80010A26821F0F0012A
:101750001143C9F80010C00742D1D8F8000000F0CA
:101760000700A8420CD9D8F8000020F00700284351
:10177000C8F80000D8F8000000F00700A84238D1EF
:101780002068410707D5D9F80010E26821F4E0612C
:101790001143C9F80010000708D5D9F800002169E5
:1017A00020F4605040EAC100C9F80000D9F80020D8
:1017B00002F00C00082841F20020C0F27A0051D15A
:1017C00046F6CC13C2F38341C0F60003595CD20342
:1017D0003CD440F60010C0F23D00484342E000BF58
:1017E000606802280AD001282AD159F8041C89030C
:1017F00008D4012001B0BDE8F08300BF59F8041CF3
:101800008901F6D5D9F8001021F003010843C9F881
:101810000000FFF76BFE064641F28837D9F800005A
:10182000616800F00C00B0EB810F96D0FFF75EFE10
:10183000801BB842F2D9032001B0BDE8F08300BF9D
:1018400059F8041C8907D4D5DCE700BFD9F800207B
:1018500046F6CA13C2F34042C0F600039A5C4843FE
:10186000B0FBF2F0D9F8001046F6B212C1F3031142
:10187000C0F60002515C40F2080220FA01F140F289
:101880000400C2F200000068C2F200021160FFF71B
:1018900055FE002001B0BDE8F08300000F22026079
:1018A00041F20402C4F20202136803F0030343602E
:1018B000136803F0F0038360136803F4E063C3600C
:1018C00012684FF4E06303EAD202026142F20000C0
:1018D000C4F20200006800F00700086070470000D2
:1018E00040F2080041F20401C2F20000C4F2020119
:1018F0000068096846F6C212C1F30221C0F6000270
:10190000515CC8407047000040F2080041F20401F9
:10191000C2F20000C4F202010068096846F6C21271
:10192000C1F3C221C0F60002515CC84070470000FC
:10193000002804BF012070472DE9F04182B0044621
:10194000007841F20006C007C4F202060CD07068AD
:1019500000F00C00042840F081803068800303D53B
:101960006068002800F04E81207880071BD57068E1
:1019700010F00C0F09D0706800F00C00082840F03F
:101980008B807068C00300F187803068800703D5C2
:101990002069012840F036813068616920F0F80044
:1019A00040EAC10030602078000713D42078400757
:1019B0002CD4E569002D00F02081706800F00C0047
:1019C000082840F0AF80012D40F00C81012002B0CA
:1019D000BDE8F081A069002800F08C800020C4F2EE
:1019E00042200121C0F88014FFF780FD054600BFAA
:1019F000706A800700F1BA80FFF778FD401B02286B
:101A0000F6D9032002B0BDE8F08100BFF0695FEABB
:101A1000C00808D4F06940F08050F061F06900F02F
:101A200080500090009847F20007C4F20007386821
:101A3000C0054DD4386840F480703860FFF756FD1B
:101A4000054600BF3868C00542D4FFF74FFD401B74
:101A50006428F7D9032002B0BDE8F081706800F077
:101A60000C00082803D17068C0033FF576AF6068AA
:101A7000002800F00981B0F5A02F00F01D81B0F51D
:101A8000803F00F01D81306820F480303060306885
:101A900020F4802017E100BF2069002840F20000F8
:101AA000C4F2422000F08C8001210160FFF71EFD8E
:101AB000054600BF306880073FF56EAFFFF716FDA3
:101AC000401B0228F6D9032002B0BDE8F08100BF18
:101AD000E068002800F09A80052800F0B180012815
:101AE00000F0B280306A20F001003062306A20F0ED
:101AF0000400ACE00020C4F242200021C0F88014B1
:101B0000FFF7F4FC054600BF706A80077FF54EAF13
:101B1000FFF7ECFC401B0228F6D9032002B0BDE819
:101B2000F08100BF0027C4F2422700203866FFF78B
:101B3000DDFC022D05460DD13068800140F1D680D4
:101B4000FFF7D4FC401B02284FF00300F4D902B089
:101B5000BDE8F081306880014FD5FFF7C7FC401B1E
:101B600002284FF00300F5D9F1E700BF40F208006A
:101B7000C2F20000006844F6D351C1F26201A0FB3A
:101B80000101480A019000BF00BF0198411E0028D2
:101B900001913FF40BAF00BF0198411E0028019155
:101BA0003FF404AF00BF0198411E002801913FF4AB
:101BB000FDAE00BF0198411E00280191E4D1F5E679
:101BC00000210160FFF792FC054600BF30688007E6
:101BD0007FF5E9AEFFF78AFC401B02284FF00300B7
:101BE000F4D9B4E77068216A00F480328A4209D1DE
:101BF000616A00F47010884204D1002002B0BDE890
:101C0000F08100BF012002B0BDE8F081306A20F011
:101C100001003062306A20F004003062FFF766FC99
:101C2000054641F2883700BF306A800722D5FFF7AA
:101C30005DFC401BB8424FF00300F5D987E700BFB9
:101C4000306A40F004003062306A40F001003062D7
:101C5000FFF74CFC054641F2883700BF306A800729
:101C600008D4FFF743FC401BB842F7D9032002B069
:101C7000BDE8F081B8F1000F3FF59BAEF06920F0B0
:101C80008050F06195E600BF306820F4803030600D
:101C9000306820F480203060FFF728FC054600BF44
:101CA000306880037FF560AEFFF720FC401B64289E
:101CB0004FF00300F4D94AE7306840F480203060E8
:101CC000306840F480303060FFF710FC054600BFFC
:101CD000306880033FF548AEFFF708FC401B6428DE
:101CE000F6D9032002B0BDE8F08100BF206AB0F54C
:101CF000803F05D17168A26821F400311143716001
:101D00007168626A21F47411114308437060012004
:101D10003866FFF7EBFB0446306880013FF56DAF96
:101D2000FFF7E4FB001B02284FF00300F4D90EE795
:101D3000704700007047000090F83C20012A4FF0E7
:101D4000020236D010B580F83D200268D2F804E0D7
:101D5000D2F808C00C682EF07003234340F2FF74E1
:101D6000C4F20004A24253600ADCB2F1804F13D0E7
:101D700040F20043C4F200039A420DD011E000BFCC
:101D800042F60043C4F201039A4205D040F6000334
:101D9000C4F200039A4204D149682CF0800319432D
:101DA00091600121002280F83D1080F83C20BDE8C0
:101DB0001040104670470000002804BF0120704703
:101DC00010B5044690F83D0028B9002084F83C0086
:101DD000204600F06FF8022084F83D00206840F2B1
:101DE000FF730268C4F2000342F6004C9842C4F24A
:101DF000010C15DCB0F1804F1AD040F20041C4F262
:101E00000001884214D0984218DCB0F1804F1DD0F8
:101E100040F20041C4F20001884217D01AE000BF2E
:101E2000604505D040F60001C4F200018842EAD1C5
:101E3000A16822F070020A439842E6DD604505D0B1
:101E400040F60001C4F20001884203D1216922F466
:101E500040720A43A36922F08001D4F804E0E268EA
:101E6000194360450160C262C0F828E002D161698F
:101E7000CCF83010012141610269D20703D0026918
:101E800022F001020261002084F8461084F83E101E
:101E900084F83F1084F8401084F8411084F8421010
:101EA00084F8431084F8441084F8451084F83D10F9
:101EB00010BD00000068B0F1804F18BF704780B5BA
:101EC00082B041F21C00C4F202000168002241F01D
:101ED000010101600068062100F0010001900198F5
:101EE0001C20FFF7BDFB1C2002B0BDE88040FFF7BF
:101EF000A5BB000090F83D1001291CBF01207047D0
:101F0000022180F83D10006840F2FF72C168C4F2FF
:101F10000002904241F00101C16009DCB0F1804F44
:101F200012D040F20041C4F2000188420CD012E00D
:101F300042F60041C4F20101884205D040F600019A
:101F4000C4F20001884206D1816801F00701062928
:101F500004BF00207047016841F0010101600020CA
:101F60007047000090F83C20012A4FF0020200F078
:101F7000C58080B580F83D20D0F800C04FF677725C
:101F8000DCF8083023EA0202CCF808200B684F2B5B
:101F900028DC1F2B44DD202B45D0302B43D0402B99
:101FA00040F0AE80D1F804E0C968DCF82030DCF8FD
:101FB000202022F00102CCF82020DCF8182022F0AA
:101FC000F00242EA011123F00A0242EA0E02CCF8C2
:101FD0001810CCF82020DCF8081041F0470121F05F
:101FE000300180E06F2B27DDB3F5005F48D0B3F5FB
:101FF000805F7AD0702B40F08380D1E901E3C9681B
:10200000DCF8082043EA0E0322F47F4243EA012170
:102010001143CCF80810DCF8081041F0770162E0B9
:102020000BB1102B6CD1DCF8081021F070011943B2
:1020300041F0070157E000BF502B35D0602B5FD136
:10204000D1F804E0C968DCF82030DCF8202022F068
:102050001002CCF82020DCF8182022F4704242EA6A
:10206000013123F0A00242EA0E12CCF81810CCF88D
:102070002020DCF8081041F0670121F0100132E067
:10208000D1E901E3C968DCF8082043EA0E0322F431
:102090007F4243EA01211143CCF80810DCF8081014
:1020A00041F480411FE000BFD1F804E0C968DCF8CA
:1020B0002030DCF8202022F00102CCF82020DCF8CF
:1020C000182022F0F00242EA011123F00A0242EA4B
:1020D0000E02CCF81810CCF82020DCF8081041F0E3
:1020E000570121F02001CCF808100022012180F8CE
:1020F0003D10002180F83C10BDE88040104670473C
:102100000122F3E77047000070B504460068C56817
:102110000669B10716D515F0020113D06FF0020160
:102120000161012121778069800703D02046FFF7F4
:10213000E9FF05E0204600F08FF8204600F08EF819
:1021400000202077700719D515F0040016D02068FC
:102150006FF00401016102212177806910F4407F52
:1021600004D02046FFF7CEFF06E000BF204600F077
:1021700073F8204600F072F800202077300717D55A
:1021800015F0080014D020686FF0080101610421E7
:102190002177C069800703D02046FFF7B3FF05E031
:1021A000204600F059F8204600F058F8002020772B
:1021B000F00619D515F0100016D020686FF0100148
:1021C000016108212177C06910F4407F04D02046C6
:1021D000FFF798FF06E000BF204600F03DF82046DC
:1021E00000F03CF800202077F00718BF15F0010040
:1021F00002D1300609D412E020686FF001010161BC
:10220000204600F02DF8300609D515F0800006D0E4
:1022100020686FF0800101612046FFF789FD70069C
:1022200009D515F0400006D020686FF0400101612B
:10223000204600F01FF8B00658BF70BD15F0200012
:1022400008D021686FF0200220460A61BDE8704086
:10225000FFF770BD70BD00007047000070470000C0
:10226000006842F60041C4F20101884218BF70477D
:10227000FFF742B9704700007047000010B50446F0
:102280000068416994F84120212A56D111F080015B
:1022900053D000BF206850E8050F216820F080006F
:1022A00041E80502DAB1206850E8050F216820F006
:1022B000800041E8050292B1206850E8050F2168CE
:1022C00020F0800041E805024AB1206850E8050F7F
:1022D000216820F0800041E80502002ADAD1A06BD5
:1022E000002818BFFEF70AFE206850E8030F216897
:1022F00020F0C00041E80302DAB1206850E8030F83
:10230000216820F0C00041E8030292B1206850E843
:10231000030F216820F0C00041E803024AB12068A1
:1023200050E8030F216820F0C00041E80302002AB2
:10233000DAD1202084F841002068406994F84210E6
:10234000222940F0A78010F0400000F0A38000BFD9
:10235000206850E8050F216820F0400041E80502A0
:10236000DAB1206850E8050F216820F0400041E80C
:10237000050292B1206850E8050F216820F0400066
:1023800041E805024AB1206850E8050F216820F0B5
:10239000400041E80502002ADAD1E06B002818BFAE
:1023A000FEF7ACFD206850E8030F216820F4907020
:1023B00041E80302BAB3206850E8030F216820F413
:1023C000907041E8030272B3206850E8030F21685F
:1023D00020F4907041E803022AB3206850E8030F0C
:1023E000216820F4907041E80302002ADAD11AE053
:1023F000206850E8050F216820F0010041E805023F
:10240000DAB1206850E8050F216820F0010041E8AA
:10241000050292B1206850E8050F216820F0010004
:1024200041E805024AB1206850E8050F216820F014
:10243000010041E80502002ADAD1206B012824D1ED
:10244000206850E8030F216820F0100041E80302E3
:10245000DAB1206850E8030F216820F0100041E84D
:10246000030292B1206850E8030F216820F01000A9
:1024700041E803024AB1206850E8030F216820F0C8
:10248000100041E80302002ADAD1202084F842003B
:1024900000202063002010BD70470000B0B582B05E
:1024A000044600680168C368426901F02F05202DC9
:1024B00003F0200506D12DB1204602B0BDE8B040A2
:1024C00001F09CBD5FEA017C1EBF02F0010E03F427
:1024D000907212EB0E0243D1226BCD0618D5012A61
:1024E00016D113F0100213D000210191016801915F
:1024F000416801910199406940063BD4A08DE18D6E
:10250000E28D002A18BF884240F0F28102B0B0BDCF
:102510000A0640F1E78013F0800200F0E38094F8AF
:1025200041102129F2D1A168B1F5805F03D1216961
:10253000002900F06382216A4A1C22620978416006
:10254000E18C01390A04E184E0D1C16821F0800105
:10255000C160C16841F04001C16002B0B0BD00BFC0
:10256000CA0718BF13F4807240F0D0804A0700F108
:10257000D380D8E0E06B016849688AB2002AC5D0F0
:10258000A38D9A42C2D2E1858069202800F09E8006
:10259000206850E8030F216820F4807041E80302AE
:1025A000DAB1206850E8030F216820F4807041E818
:1025B000030292B1206850E8030F216820F4807074
:1025C00041E803024AB1206850E8030F216820F473
:1025D000807041E80302002ADAD1206850E8050F34
:1025E000216820F0010041E80502C2B3206850E8EC
:1025F000050F216820F0010041E805027AB3206848
:1026000050E8050F216820F0010041E8050232B3CF
:10261000206850E8050F216820F0010041E805021C
:10262000002ADAD11BE000BF206850E8050F2168BE
:1026300020F0400041E80502DAB1206850E8050FBB
:10264000216820F0400041E8050292B1206850E87E
:10265000050F216820F0400041E805024AB12068DA
:1026600050E8050F216820F0400041E80502002AEB
:10267000DAD1202084F8420000202063206850E84E
:10268000030F216820F0100041E80302DAB120684E
:1026900050E8030F216820F0100041E8030292B1D6
:1026A000206850E8030F216820F0100041E8030281
:1026B0004AB1206850E8030F216820F0100041E87B
:1026C0000302002ADAD1E06BFEF718FC02206063F7
:1026D000A08DE18D401A81B2204602B0BDE8B04025
:1026E000FFF7CABD49067FF511AF13F040013FF473
:1026F0000DAFC16821F04001C1602021204684F85F
:10270000411002B0BDE8B04000F050BC626C42F035
:10271000010262644A0706D5BEF1000F03D0626C65
:1027200042F0020262648A0706D5BEF1000F03D0B0
:10273000626C42F004026264BCF1000F06D55EEAEE
:10274000050203D0626C42F008026264626C002AE7
:102750003FF4DCAE890604D51DB1204601F04EFCE5
:1027600020684069616C00F0400001F008014018E9
:1027700000F0B680206850E8030F216820F49070C4
:1027800041E80302BAB3206850E8030F216820F43F
:10279000907041E8030272B3206850E8030F21688B
:1027A00020F4907041E803022AB3206850E8030F38
:1027B000216820F4907041E80302002ADAD11AE07F
:1027C000206850E8050F216820F0010041E805026B
:1027D000DAB1206850E8050F216820F0010041E8D7
:1027E000050292B1206850E8050F216820F0010031
:1027F00041E805024AB1206850E8050F216820F041
:10280000010041E80502002ADAD1206B012824D119
:10281000206850E8030F216820F0100041E803020F
:10282000DAB1206850E8030F216820F0100041E879
:10283000030292B1206850E8030F216820F01000D5
:1028400041E803024AB1206850E8030F216820F0F4
:10285000100041E80302002ADAD1202084F8420067
:102860000020206320684069400640F1C180206854
:1028700050E8050F216820F0400041E80502DAB178
:10288000206850E8050F216820F0400041E805026B
:1028900092B1206850E8050F216820F0400041E81F
:1028A00005024AB1206850E8050F216820F0400079
:1028B00041E80502002ADAD1E06B002800F0988098
:1028C00043F64541C0F600014163FEF73BFB00289B
:1028D0003FF41CAEE06B416B02B0BDE8B04008476E
:1028E0002046FFF7D9FD0020606402B0B0BD00BFF4
:1028F000401A00BF216851E8031F226821F490713B
:1029000042E80313BBB3216851E8031F226821F496
:10291000907142E8031373B3216851E8031F2268E2
:1029200021F4907142E803132BB3216851E8031F8F
:10293000226821F4907142E80313002BDAD11AE0E7
:10294000216851E8051F226821F0010142E80513C2
:10295000DBB1216851E8051F226821F0010142E83E
:10296000051393B1216851E8051F226821F0010188
:1029700042E805134BB1216851E8051F226821F098
:10298000010142E80513002BDAD1202184F842101E
:1029900000212163216851E8031F226821F0100102
:1029A00042E80313DBB1216851E8031F226821F0DC
:1029B000100142E8031393B1216851E8031F226814
:1029C00021F0100142E803134BB1216851E8031FC5
:1029D000226821F0100142E80313002BDAD1022211
:1029E00081B22046626302B0BDE8B040FFF744BC4C
:1029F000204602B0BDE8B040FFF74EBD216A31F875
:102A0000022B6FF35F224260216299E5002804BF28
:102A10000120704710B5044690F8410028B9002005
:102A200084F84000204600F063F8242084F8410038
:102A30002068D4E90212C36823F40053C360036919
:102A400023F440531A430261D4E904231143C268BA
:102A5000194341F20C639A431143C1604169A26971
:102A600021F44071114343F60002C4F20102904286
:102A7000416103D0FEF734FF02E000BFFEF744FFE0
:102A8000D4E90023192148439900B0FBF1F048F242
:102A90001F5CC5F2EB1CA0FB0C314FF69C7349097F
:102AA000C0F6FF7301FB0300322303EB0010A0FB11
:102AB0000C03F02000EA531000EB0110C3F34311A4
:102AC000084490601069202120F490401061506902
:102AD00020F02A005061D06840F40050D0600020FF
:102AE000606484F8411084F84210606310BD0000F7
:102AF0002DE9F04385B00446006844F20041C4F279
:102B00000001002788420497CDE90277019779D028
:102B100044F60001C4F20001884200F0DD8043F673
:102B20000001C4F20101884240F02C8141F21800FA
:102B3000C4F20200016840F6000541F480410160E2
:102B40000168C4F2010501F4804100910099016817
:102B500001AE41F004010160006840F2300800F06D
:102B60000400009000984FF4007001900220029041
:102B70000320049028463146C4F20208FEF7A0FB69
:102B80004FF480600190002728463146CDE9027756
:102B9000FEF796FB40F61C2508F12800C2F200055E
:102BA00080264FF44059C5E900072846C5E902765A
:102BB000C5E90477C5E90679FEF7EEFA002818BFE3
:102BC000FDF7B2FDE5636C6240F6602508F1140084
:102BD000C2F20005102185E883002846C5E9036795
:102BE000C5E90577C5F81C90FEF7D6FA002818BF8E
:102BF000FDF79AFDA5636C6225200521002225249E
:102C0000BBE000BF41F21800C4F20200416840F688
:102C1000000541F4003141604168C4F2010501F44E
:102C2000003100910099016801AE41F0040101609A
:102C3000006840F2300800F0040000900098042082
:102C40000190022002900320049028463146C4F2ED
:102C50000208FEF735FB0820CDE90107284631467A
:102C60000397FEF72DFB40F6E82508F15000C2F26D
:102C70000005102180264FF4805985E883002846FE
:102C8000C5E90367C5E90577C5F81C90FEF784FA26
:102C9000002818BFFDF748FDA5636C6240F6A42527
:102CA00008F13C00C2F200050021C5E900012846F8
:102CB000C5E90216C5E90411C5E90619FEF76CFA63
:102CC000002818BFFDF730FDE5636C622620062161
:102CD0000022262451E000BF41F21800C4F2020095
:102CE000416801AE41F480214160416801F48021D6
:102CF00000910099016841F00801016000683146C7
:102D000000F00800009000984FF4806001900220CD
:102D100002900320049040F60000C4F2010000F588
:102D200080652846FEF7CCFA4FF40060019000273A
:102D300028463146CDE90277FEF7C2FA40F62C3537
:102D40003020C2F20005C4F2020080214FF440524C
:102D5000C5E900072846C5E90271C5E90477C5E958
:102D60000672FEF719FA002818BFFDF7DDFCE563CF
:102D70006C622720052100222724FEF771FC2046E3
:102D8000FEF75CFC05B0BDE8F083000070B582B0D2
:102D9000044690F8420020280AD113460A4600292A
:102DA0004FF0010018BF002B06D102B070BD00BF6C
:102DB000022002B070BD00BF002522202563A26260
:102DC000A385656484F842002168E06B43F6CD5C1E
:102DD00043F62D7E43F65146C0F6000CC0F6000EB9
:102DE000C0F600060431C0E90ACEC0E90C65FEF762
:102DF00017FA0195206801680191406801900198D7
:102E0000206928B3206850E8030F216840F48070DF
:102E100041E80302E2B1206850E8030F216840F462
:102E2000807041E803029AB1206850E8030F2168DE
:102E300040F4807041E8030252B1206850E8030F6B
:102E4000216840F4807041E80302002ADAD100BF13
:102E5000206850E8050F216840F0010041E80502B4
:102E6000BAB3206850E8050F216840F0010041E83E
:102E7000050272B3206850E8050F216840F0010098
:102E800041E805022AB3206850E8050F216840F0A8
:102E9000010041E80502002ADAD11AE0206850E872
:102EA000050F216840F0400041E80502DAB12068D2
:102EB00050E8050F216840F0400041E8050292B15A
:102EC000206850E8050F216840F0400041E8050205
:102ED0004AB1206850E8050F216840F0400041E801
:102EE0000502002ADAD1002002B070BD7047000050
:102EF0007047000070B5044690F8410020281CBFC0
:102F0000022070BD00294FF001004DD0002A134669
:102F100008BF70BD4FF0000C21202162A384E38420
:102F2000C4F844C084F841002268A06B43F6457E93
:102F300043F6F57543F65146C0F6000EC0F600059F
:102F4000C0F600060432C0E90AE5C0E90C6CFEF7E1
:102F500067F920686FF04001016000BF206850E809
:102F6000050F216840F0800041E80502DAB12068D1
:102F700050E8050F216840F0800041E8050292B159
:102F8000206850E8050F216840F0800041E8050204
:102F90004AB1206850E8050F216840F0800041E800
:102FA0000502002ADAD1002070BD00007047000041
:102FB00070470000FEE700002DE9F04F93B0044693
:102FC00000200026C4F29620CDE90F6041F26F2068
:102FD000C3F683200E9049F69A10C3F6597043F257
:102FE0003337002544F200010D9004F2FE604FF0EB
:102FF000F7094FF0020AC3F63377C4F27A45C4F2F8
:103000009C6110AB0022CDE91166CDE90055CDE9F8
:103010000277CDF810A0CDF8149000F0F5FB002158
:1030200044F2000840F2000BC4F2FA41C4F21C68FA
:10303000C4F2482B04F5D0608DE8A2000DAB4146E8
:103040005A46CDE9037ACDF8149000F0DDFB41F249
:103050006F20C3F6832009904BF21770C3F65120FE
:1030600008904FF0804046F20001079004F2BE50F5
:10307000C4F26A610AAB00220C96CDE90AB6CDE92A
:103080000055CDE90277CDF810A0CDF8149000F0EE
:10309000BBFB04F5A86007AB41465A46CDE9005595
:1030A000CDE90277CDF810A0CDF8149000F0ACFB7C
:1030B000002013B0BDE8F08F10B540F6F41046F2D2
:1030C0000041C2F20000C4F20001022200234FF0CE
:1030D000807480E80E0000F10C014FF4402C4FF496
:1030E000401E81E8085084618383FDF7CDFD0028F0
:1030F00008BF10BDBDE81040FDF716BB80B582B01B
:1031000041F21400C4F202000168002241F0010102
:1031100001600068052100F00100019001980D2078
:10312000FEF79EFA0D20FEF789FA0E2005210022F7
:10313000FEF796FA0E20FEF781FA0F2005210022F5
:10314000FEF78EFA0F20FEF779FA102005210022F3
:10315000FEF786FA1020FEF771FA112005210022F1
:10316000FEF77EFA112002B0BDE88040FEF766BA95
:1031700070B598B00020CDE9160016A801F0DEF970
:1031800040F27006C2F200061B4930601AA0051D0D
:103190000F913ECD80690DF1400C8CE83E001590FA
:1031A0000FA8002101F0D2F91A49706019A0051D7D
:1031B00008912ECDD0E905400DF1240C8CE82E00AD
:1031C000CDE90D4008A8002101F0C0F91849B06010
:1031D00017A0051D01912ECDD0E905400DF1080C79
:1031E0008CE82E00CDE9064001A8002101F0AEF9DF
:1031F000F06018B070BD00BFF3690008953A000890
:1032000000000000000000000001000000000000BD
:1032100000000000DC690008B53A00080200000068
:10322000000000000001000000000000000000009D
:10323000E7690008C13B0008000000000000000032
:10324000800000000000000000000000B0B584B065
:1032500041F21800C4F20200016840F6004441F057
:10326000100101600168C4F2010401F01001009135
:1032700000990168002241F02001016001684FF4CB
:10328000405501F0200100910099016841F00401CE
:103290000160016801F0040100910099016841F0AA
:1032A0000801016000684FF4405100F008000090F0
:1032B00000982046FEF714F90120CDE90100032013
:1032C0000390694620460095FDF7FAFF04B0B0BDB3
:1032D00080B586B040F6B8300021C2F2000041F25D
:1032E000873C0591CDE90311CDE900114FF08042F3
:1032F00041F61F43C0E9021C01618021C0E900239F
:103300008161FEF759FD002818BFFDF70DFA4FF453
:103310008050029040F6B830C2F2000002A9FEF7D9
:1033200021FE002818BFFDF7FFF940F6B830C2F2C1
:1033300000006946FEF700FD002818BFFDF7F4F90C
:1033400006B080BD80B540F6004043F60001C2F2F1
:103350000000C4F2010100234FF00C0C4FF4E132E5
:1033600080E80E00C0E90333C0E905C3C361FFF77D
:103370004DFB002808BF80BDBDE88040FDF7D4B9F3
:1033800080B540F6484044F20041C2F20000C4F269
:10339000000100234FF00C0C4FF4E13280E80E00E6
:1033A000C0E90333C0E905C3C361FFF72FFB002861
:1033B00008BF80BDBDE88040FDF7B6B910B540F646
:1033C000904044F6000C48F2A062C2F20000C4F241
:1033D000000CC0F201024FF4805300214FF4806EC4
:1033E0000C24C0E900C2C0E90231C0E904E4C0E92C
:1033F0000611FFF70BFB002808BF10BDBDE8104009
:10340000FDF792B9FEE700008289038A42810A88AB
:10341000C38112BA120C82814A8812BA120C02823B
:103420008A8812BA120C42828979017570470000AD
:10343000B0F90A20B0F90C108B1A13F5805F03DA8B
:10344000828D013205E000BF828DB3F5805F01DD22
:10345000013A828512B201EB42318161704700006E
:10346000FEE700002DE9F04F81B0044690F96C00B2
:103470001646B0F1FF3F0D463DDC206C41F26F2156
:10348000676BC3F6832103F053F90146384602F017
:1034900096FF80BB27684BF2177127F00040C3F6F8
:1034A000D10102F08CFF30BB2169384603F00CFAE1
:1034B000394602F097FF43F2333120F00040C3F663
:1034C000737102F067FF002804F16D0010D00168ED
:1034D0004268013140F2F51342F10002CB1A01605B
:1034E00072F10001426024BF012084F8750002E0FF
:1034F0000021416001604FF07E50606630462946F1
:103500002561266003F0E0F9D4F87610A06109B1D6
:1035100020468847A06EE0B9A7696068A668E5689C
:10352000394603F005F960623846314603F000F988
:10353000666E314603F0FCF8E1692063384603F01B
:10354000C3F90146284603F0F3F8314602F04AFF7A
:10355000E062D4F87A1009B12046884794F86C905C
:103560005FEA497019D5A06EA56820B14168284668
:1035700002F0A0FE0546A069E169666E02F09AFEBF
:103580004FF07C5103F0D4F80146284603F0D0F800
:103590000146304603F0CCF820635FEA89602CD501
:1035A000A669A16A304603F0C3F8002102F000FFCB
:1035B00018BB656D26F000473846294602F0F8FE34
:1035C000D8B9266D2846314602F074FE01463846C9
:1035D00002F0E0FE10B100200EE000BF3046394698
:1035E00003F072F90146284602F064FE314602F00B
:1035F000F9FE216B03F09CF820635FEA89700DD41B
:103600005FEA496022D45FEAC97041D1D4F824B09E
:10361000A56AD4F82C80D4F830A087E0A06EE568C5
:1036200020B18168284602F045FE0546216960699F
:10363000666E03F049F90146284603F079F83146F1
:1036400002F0D0FEE0625FEA4960DCD5676EE06AB6
:10365000D4F83C80E66D394603F06AF805463846F2
:10366000314602F027FE07462846394602F0BAFEE8
:1036700005463046414603F05BF8394602F0B2FE9B
:103680000146284602F016FEE0625FEAC970BDD02E
:10369000A56AD4F830A0D4F824B0E66A284651468A
:1036A00002F008FE80462846594602F003FE3146E5
:1036B000009602F0FFFD216C20F0004002F078FE41
:1036C00060B9A169284603F033F80021002602F012
:1036D0006FFE002804BF26634FF0000A666C404668
:1036E000314602F057FE002818BF354686F00046E6
:1036F00007464046314602F062FE002818BF3546B4
:10370000002F18BF4FF0000A002818BF4FF0000A22
:1037100047B94046314602F044FE002808BFC4F8CD
:1037200030A001E0C4F830A0DDF800805046294602
:1037300002F0C0FD5946A06202F0BCFD414602F015
:10374000B9FD06465FEAC96066631FD5656ED4F8A9
:103750003890A76D3046294602F0EAFF0646284613
:10376000394602F0A7FD05463046294602F03AFEEA
:1037700006463846494602F0DBFF294602F032FE93
:103780000146304602F096FD06466063276C3046DF
:10379000394602F0FFFD0028354687F0004918BF82
:1037A0003D4604D12846494602F0FBFD40B9284673
:1037B000494602F004FE002818BF4D462E466563B8
:1037C0005846394602F0E6FD002818BFBB4604D132
:1037D0005846494602F0E5FD40B95846494602F0D0
:1037E000EEFD002818BFCB46C4F824B02069A169BB
:1037F0006061A663C4F83C80E1613046C4F820A053
:1038000001B0BDE8F08F0000B0B501640021426452
:1038100001601A68DDF824C042605A68DDF81CE0D7
:103820008260069C059D9A68049BC26001630365E3
:1038300045658465C0F85CE0016680F86CC0C0F83E
:103840007110C0F86D1080F875104163B0BD0000B4
:10385000EFF30980BFF36F8F0D4B1A6820E9F00F6B
:1038600010602DE908404FF0500080F3118801F0FE
:103870002BFE4FF0000080F31188BDE80840196866
:103880000868B0E8F00F80F30988BFF36F8F7047C6
:10389000800000204268C2F301320A734268C2F31A
:1038A00081324A7302886FF3DF22A2F580624A8078
:1038B0000268C2F3CA22A2F580628A80D0E900239E
:1038C000920D42EA83226FF3DF22A2F58062CA8062
:1038D0004268C2F34A02A2F580620A81008A6FF34D
:1038E000DF20A0F580604881704700002DE9F04797
:1038F0001446032836D0022875D1487B012875D09C
:10390000032818BFBDE8F087B1F90800B1F90680B7
:1039100002F07AFE49F6A631C3F6443102F008FF00
:10392000D4E90017D4E9025902F0C4FC394606462E
:1039300002F030FD002818BF3E463046294602F00E
:103940003EFD0028404618BF2E46266002F05CFE71
:1039500046F24201CBF6E53102F0EAFE0146484666
:103960003EE000BF40F27011C2F2000140F20008D8
:10397000D1E9070AC4F2B438D1F82890414602F0E0
:1039800031FD4FF08C4102F0D3FED4E901670546CA
:10399000314602F0FFFC002818BF3546284639465C
:1039A00002F00DFD00285046414618BF3D462560F7
:1039B00002F018FD41F26F210546C3F68321484607
:1039C00002F0B6FE4FF08C4102F0B2FE414602F02A
:1039D00009FD064628464FF08C4102F0A9FE31460B
:1039E00002F068FCE060BDE8F08700BF40F27010B4
:1039F000C2F2000090F83210B1B10027066AC06927
:103A0000C4F2B437394602F0EDFC4FF08C4102F0BD
:103A10008FFE05463046394602F0E4FC4FF08C41FB
:103A200002F086FE0EE000BF40F20820C2F2000065
:103A3000D0F81865D0F8580602F0E6FD0546304685
:103A400002F0E2FDD4E90167E0602846314602F069
:103A5000A1FC002818BF35462846394602F0AFFCC5
:103A6000002818BF3D462560BDE8F0870000000033
:103A7000074B19680868B0E8F00F80F30988BFF3B6
:103A80006F8F4FF0000080F311884EF00D0E7047DD
:103A900080000020FCF7DAFC40F60044C4F2010488
:103AA00020464FF48051FDF713FD4FF4FA7000F0FB
:103AB00037FDF5E78AB040F2D010C2F2000040F2C4
:103AC000D01540F208272C30C2F20005C2F20007E0
:103AD000079000BF0798FCF767FDA861FCF78EFD13
:103AE00040F68811C2F20001B1F90210686208467E
:103AF00002F08AFDD7F818150990084602F084FDF7
:103B00004FF0645102F014FE0024C4F2B434214694
:103B100002F00EFED7F858160890084602F074FD21
:103B20004FF0645102F004FE214602F001FEB7F9A5
:103B300050168046084602F067FD0026C4F2702643
:103B4000314602F04FFC214602F0F2FDB7F91015A4
:103B50008146084602F058FD314602F043FC2146FA
:103B600002F0E6FD40F27011C2F20001D1E907B4A3
:103B700091F83210EE698246084602F05DFD04902D
:103B8000DDE90810CDE9024642464B460026CDE964
:103B900000AB059600F04CFB384600F09DFB284634
:103BA000394600F025FC40F688110320C2F20001DE
:103BB0002A46FFF79BFE012000F0B2FC8AE70000D6
:103BC00040F2D017C2F2000740F6881540F2701696
:103BD00007F13004C2F20005C2F200062046FCF7ED
:103BE000E3FCF8612846FCF799FC304600F042FB04
:103BF000012000F095FCF1E780B54FF0500080F314
:103C00001188BFF36F8FBFF34F8F02F069F930B1A6
:103C10004EF60450CEF200004FF0805101600020BB
:103C200080F3118880BD00007047000040F67030BE
:103C3000C2F20000FEF768BA40F6B830C2F20000E7
:103C4000FEF762BA406A0021C185C184FEF724BC38
:103C5000406A01684A6990F84130212B2DD112F059
:103C600080022AD00021C184016851E8031F026844
:103C700021F0C00142E80313DBB1016851E8031FE2
:103C8000026821F0C00142E8031393B1016851E8D2
:103C9000031F026821F0C00142E803134BB1016821
:103CA00051E8031F026821F0C00142E80313002B12
:103CB000DAD1202180F841100168496990F842204A
:103CC000222A40F07D8011F0400179D00021C18589
:103CD000016851E8031F026821F4907142E8031360
:103CE000BBB3016851E8031F026821F4907142E8F8
:103CF000031373B3016851E8031F026821F4907144
:103D000042E803132BB3016851E8031F026821F452
:103D1000907142E80313002BDAD11AE0016851E8F0
:103D2000051F026821F0010142E80513DBB10168BB
:103D300051E8051F026821F0010142E8051393B123
:103D4000016851E8051F026821F0010142E80513EE
:103D50004BB1016851E8051F026821F0010142E8FA
:103D60000513002BDAD1016B012924D1016851E838
:103D7000031F026821F0100142E80313DBB1016860
:103D800051E8031F026821F0100142E8031393B1C8
:103D9000016851E8031F026821F0100142E8031393
:103DA0004BB1016851E8031F026821F0100142E89D
:103DB0000313002BDAD1202180F842100021016387
:103DC000416C41F010014164FEF766BB0168406A36
:103DD0000968890600F19F800021C185016851E8CA
:103DE000031F026821F4807142E80313E3B1016804
:103DF00051E8031F026821F4807142E803139BB16C
:103E0000016851E8031F026821F4807142E803133E
:103E100053B1016851E8031F026821F4807142E840
:103E20000313002BDAD100BF016851E8051F0268B7
:103E300021F0010142E80513BBB3016851E8051FF9
:103E4000026821F0010142E8051373B3016851E8EB
:103E5000051F026821F0010142E805132BB3016838
:103E600051E8051F026821F0010142E80513002B0B
:103E7000DAD11AE0016851E8051F026821F040011B
:103E800042E80513DBB1016851E8051F026821F023
:103E9000400142E8051393B1016851E8051F02682B
:103EA00021F0400142E805134BB1016851E8051FBC
:103EB000026821F0400142E80513002BDAD12021ED
:103EC00080F84210016B012925D100BF016851E83B
:103ED000031F026821F0100142E80313DBB10168FF
:103EE00051E8031F026821F0100142E8031393B167
:103EF000016851E8031F026821F0100142E8031332
:103F00004BB1016851E8031F026821F0100142E83B
:103F10000313002BDAD100214163016B012918BF83
:103F2000FEF7E4BF818DFEF7A7B90000406A0121CA
:103F30004163016B012918BFFEF7DABF818D490883
:103F4000FEF79AB90168406A0968890648BFFFF719
:103F50002DB80021C18400BF016851E8051F026827
:103F600021F0800142E8051383B3016851E8051F81
:103F7000026821F0800142E805133BB3016851E873
:103F8000051F026821F0800142E80513F3B10168C2
:103F900051E8051F026821F0800142E80513002B5B
:103FA000DAD113E0016851E8031F026841F04001D3
:103FB00042E80313002B08BF7047016851E8031F54
:103FC000026841F0400142E8031393B1016851E8EF
:103FD000031F026841F0400142E803134BB101683E
:103FE00051E8031F026841F0400142E80313002B2F
:103FF000D8D17047406AFEF7DBBF000081B090F86F
:104000004210222921D183680246B3F5805F09D18D
:1040100052F8281F52F8183C002B63D003685B68E5
:104020000AE000BF52F8281F13B90369002BF5D02E
:1040300003685B6803F07F030B7011680131116046
:10404000C18D01390A04C18502D001B0704700BF9B
:104050000168CA6822F02002CA60CA6822F480722D
:10406000CA604A6922F001024A61202180F84210A8
:1040700000214163026B012A3CD10163016851E8D0
:10408000031F026821F0100142E80313DBB101684D
:1040900051E8031F026821F0100142E8031393B1B5
:1040A000016851E8031F026821F0100142E8031380
:1040B0004BB1016851E8031F026821F0100142E88A
:1040C0000313002BDAD101680A68D20606D5002254
:1040D00000920A680092496800910099818D01B0B0
:1040E000FEF7CAB8026852686FF35F2221F8022B0C
:1040F0008162A5E701B0FEF7F9BE000010B540F6F9
:104100000044C2F200042046FEF7C8F92046BDE88C
:10411000104000F02BB8000010B540F64844C2F241
:1041200000042046FEF7BAF92046BDE8104000F032
:104130001DB8000010B540F69044C2F200042046BD
:10414000FEF7ACF92046BDE8104000F00FB80000C3
:1041500040F6F410C2F20000FCF766BC40F6F41022
:10416000C2F20000FCF760BCFEE70000F0B583B0CF
:104170000446006844F20047C4F20007B8422DD05C
:1041800007F58061884251D140F69040C2F20000AC
:1041900000680168C90649D500250195016840F607
:1041A000904401914068C2F20004019001982046B9
:1041B000FEF764F840F68811C2F200010D8040F26B
:1041C0005815C2F200052846FFF764FB2046294631
:1041D000132203B0BDE8F040FEF7D8BD40F64840DA
:1041E000C2F2000000680168C9061FD500210291D3
:1041F000016840F6484502914068C2F2000502900D
:1042000002982846FEF73AF840F27016C2F200060D
:104210003046314600F040F8284631461522FEF778
:10422000B5FD206807F580618842ADD003B0F0BDD0
:104230002DE9F04140F6C81CC2F2000CDDE90A8EFF
:10424000DDE90865DDE906478CE89F004FF0FF4097
:10425000CCF8280040F60040CCE90665CCF8208078
:10426000C2F2000061462C22CCF824E0BDE8F04107
:10427000FEF740BE018ECA087C2A82BF002180F86A
:10428000321070474A1C028640F2E732891A18BF82
:10429000012180F83210704701220A860278CD2A67
:1042A0000A761EBFFF2040B27047D0F80120CA61D5
:1042B000D0F805200A62D0F809204A62D0F80D2013
:1042C0008A62D0F81120CA62407D4876DC3818BF77
:1042D0006FF0010040B270472DE9F0470646D0F874
:1042E000580640F69814C2F2000402F08DF94FF01F
:1042F000645102F01DFA40F20008C4F2B43841469D
:1043000002F016FA0546D6F81805A56102F07CF908
:104310004FF0645102F00CFA414602F009FA0746E8
:10432000B6F95001B6F91090E76102F06DF940F26C
:10433000000AC4F2702A514602F054F8414602F0D5
:10434000F7F906462062484602F05EF9514602F04F
:1043500049F8414602F0ECF9DC2284F82C20CD2209
:1043600022702A0AA2702A0CE2702A0E22713A0ADE
:10437000A2713A0CE2713A0E40F2D0112272320A66
:10438000C2F20001A272320C496AE272320E22734A
:10439000020AC4E909016073A273020C000E2074C2
:1043A000080AA074080CE074080E20754CF6DC5363
:1043B00040F64840657067716672E2736174C2F2DC
:1043C000000021461622A4F81530BDE8F047FEF79C
:1043D00091BD000080B588B0082306930023CDE985
:1043E0000433029102A901ABFCF7BCF908B080BD0F
:1043F00070B582B005680C46C1F87456C06801F506
:10440000D066C1F83405D1F8580602F0FDF801462F
:1044100030462A46FFF726F8B4F9500604F2FE6546
:1044200002F0F2F8D4F8B42601462846FFF71AF84D
:10443000D4F81805D4F8346504F5A86502F0E4F85A
:10444000014628463246FFF70DF8B4F9100504F28C
:10445000BE5502F0D9F8D4F8742501462846FFF776
:1044600001F8D4F8F205D4F8324702F0B1F8054665
:10447000204602F0ADF8034640F6F4100026C2F2E2
:10448000000040F2FF112A4600960196FCF74EF814
:10449000002002B070BD000090B0FDF73BF8002492
:1044A0000120CDE90B44CDE9094406900A904FF470
:1044B000E0104FF4803102250F9006A8CDE90714D3
:1044C000CDE90D51FDF734FA20B1EFF3108072B64B
:1044D000FEE700BF0F20CDE901054FF48060CDE974
:1044E000040401A802210394FDF7F6F820B1EFF3CC
:1044F000108072B6FEE700BFFEF7A8FEFEF7FEFDD5
:10450000FEF7DAFDFEF7E4FEFEF73AFFFEF756FF90
:10451000FEF718FFFEF72CFE00F00AF8FEE7000099
:1045200080B5012898BF012000F088FE002080BDE2
:1045300080B500F049FF002080BD000041680120E7
:10454000002908BF01F090B801F0C4B8B0B584B03C
:1045500043698E4693B1846984B10589D0E9001C12
:10456000026928B2843D18BFC51CCDE900536046DE
:104570007346029401F062FC04B0B0BD0589D0E935
:104580000013028A28B2843D18BFC51C03AC18462C
:104590007346CDE9005401F021FC0399012818BFAE
:1045A0000021084604B0B0BDF0B581B040F28004EF
:1045B000C2F200040E46A76821680546081D00F0F7
:1045C0007DFC18B1681C0CD016E000BF20680121EA
:1045D000C06AE26801FA00F022EA0000E060681CAC
:1045E0000AD14EB154F8380B011D204601B0BDE888
:1045F000F04000F0D3BC00BF2068ED19456007D340
:10460000E06A2168043101B0BDE8F04000F094BCDC
:10461000A06A2168043100F08FFCE069854238BF50
:10462000E56101B0F0BD00002DE9F041044600F065
:10463000C3FC40F28007C2F20007786940F6985543
:10464000013078613868C2F2000548B13869E8BBCA
:104650003868E16AC06A884298BF3C6036E000BFB3
:104660003C607869012831D1284600F055FC05F1FD
:10467000140000F051FC05F1280000F04DFC05F19C
:104680003C0000F049FC05F1500000F045FC05F14C
:10469000640000F041FC05F1780000F03DFC07F1FA
:1046A0006006304600F038FC41F62828C2F20008C7
:1046B000404600F031FC07F14C0000F02DFC07F102
:1046C000380000F029FCBE62C7F82C80F868796BCE
:1046D000012201317963E16A8A401043F86001EBFD
:1046E000810005EB8000211D00F058FC00F088FCE3
:1046F000386988B13868E16AC06A884228BFBDE875
:10470000F0814EF60450CEF200004FF0805101606F
:10471000BFF34F8FBFF36F8FBDE8F08140F6985025
:104720004EF60451C2F20000CEF200014FF080526A
:104730000368022BFCD30A60BFF34F8FBFF36F8F68
:10474000F6E700002DE9F047DDE909878246386B7E
:10475000089C00EB820004389946002920F00706E7
:1047600056D0087887F83400087800284BD048786D
:1047700087F835004878002845D0887887F83600D3
:10478000887800283FD0C87887F83700C878D0B339
:10479000087987F838000879A8B3487987F839008C
:1047A000487980B3887987F83A00887958B3C8790E
:1047B00087F83B00C87930B3087A87F83C00087A5C
:1047C00008B3487A87F83D00487AE0B1887A87F8DC
:1047D0003E00887AB8B1C87A87F83F00C87A90B1AD
:1047E000087B87F84000087B68B1487B87F8410068
:1047F000487B40B1887B87F84200887B00281CBF3B
:10480000C87B87F84300002087F8430003E000BF1F
:10481000002087F834000025381D062C28BF062408
:10482000FC62C7E9114500F083FB07F1180000F0B6
:104830007FFB84F00700B861304651464A463F612D
:104840007F62FD6487F8505000F028FBB8F1000F3C
:10485000386018BFC8F80070BDE8F08706480068E7
:10486000006880F3088862B661B6BFF34F8FBFF36C
:104870006F8F00DF00BF000008ED00E081B0002076
:10488000009040F20C00C2F2000000684FF05001AE
:1048900081F31188BFF36F8FBFF34F8F013007D0C3
:1048A000FEE700BF009830B9009820B9009810B911
:1048B00000980028F6D001B07047000086B040F2A2
:1048C000F40AC2F2000A4FF0000B0DF10C09E846A1
:1048D000DAF8080005681DB1C068046801E000BF8F
:1048E000002400F0E9FD01F0F5FADAF810100646B0
:1048F000884220D3002DCAF8106051D0A6424FD371
:1049000001F008FCDAF80800C068C7683D1D2846B9
:1049100000F0D4FA97F82400410745D400F0FE00D7
:1049200087F8240084E000BF6860DAF808003946A0
:104930002D6100F001FBDAF80800016831B3C068AE
:10494000C56804682F1D384600F0B8FA296A284661
:10495000884795F824004007EDD5A8692044A04277
:10496000E2D8DAF80000002800F03C81CDE903B479
:10497000059501F09FFADAF800004946002200236D
:1049800000F062FF0028D6D12CE100BFDAF80C104D
:10499000CAF81060CAE9021001F0BCFB0EE100BFCA
:1049A00065B1002210E000BFB8693F610119B14252
:1049B00079601FD90AF1080021E000BFDAF80C0085
:1049C0000068B0FA80F04209DAF80000A11B00F09C
:1049D0000BFC01F09FFB002840F0F0804EF60450E5
:1049E000CEF200004FF080510160BFF34F8FBFF354
:1049F0006F8FE3E0311B814206D20AF10C000068A0
:104A0000294600F099FA13E0DAF80000002800F0D7
:104A10000781CDE903B4059701F04CFADAF80000FC
:104A200049460022002300F00FFF002800F0F88024
:104A3000396A38468847C1E00098002800F1BE80F6
:104A4000029E706910B1301D00F038FA01F042FA90
:104A5000DAF81010074688420DD30098CAF8107093
:104A600009283ED9AAE000BF6860DAF808002146AC
:104A70002D6100F061FADAF80800016831B3C0680E
:104A8000C568D0F800802C1D204600F017FA296A6E
:104A90002846884795F824004007ECD5A86940448B
:104AA0004045E1D8DAF80000002800F09180CDE917
:104AB00003B8059501F0FEF9DAF800004946002236
:104AC000002300F0C1FE0028D5D181E0DAF80C10F7
:104AD000E846CAE902100098CAF81070092800F2E6
:104AE0006D80DFE800F005050541455F050541459E
:104AF00096F82400019A40F00101B06986F824106C
:104B00008318314641F8043FBB42366106D99742CB
:104B10000AF1080007D293420AD204E0BA1A82428C
:104B200006D20AF10C00006800F006FA46E000BF69
:104B3000316A3046884796F8240040073ED5DAF8B7
:104B40000000002858D00198B16905960844CDE9C5
:104B500003B001F0AFF9DAF8000049460022002363
:104B600000F072FE50BB47E096F8240022E000BF40
:104B700096F8240040F00101019886F824100028DE
:104B8000B06143D0384431460AF10C0241F8040FB9
:104B90003661B84288BF0AF10802106800F0CCF90B
:104BA0000CE000BF96F82400810703D4304600F0E3
:104BB0003FFA03E000F0FE0086F82400DAF8000077
:104BC0004146002200F09EFF00287FF435AF7FE6CB
:104BD0004FF0500080F31188BFF36F8FBFF34F8FFA
:104BE000FEE700BF4FF0500080F31188BFF36F8FD6
:104BF000BFF34F8FFEE700BF4FF0500080F31188E6
:104C0000BFF36F8FBFF34F8FFEE700BF4FF0500031
:104C100080F31188BFF36F8FBFF34F8FFEE700BFA4
:104C20004FF0500080F31188BFF36F8FBFF34F8FA9
:104C3000FEE70000F0B581B0044600F0BDF994F93C
:104C40004560012E0FDB04F1240500BF286850B138
:104C5000284601F025FA002818BF00F049FBF0B201
:104C6000013E0128F2D8FF2684F8456000F0C8F91B
:104C700000F0A2F994F94470012F0EDB04F1100545
:104C8000286850B1284601F00BFA002818BF00F040
:104C90002FFBF8B2013F0128F2D884F8446001B03C
:104CA000BDE8F04000F0ACB970B5044600F004FC7B
:104CB00040F2301CC2F2000CDCF8040050B19CF849
:104CC0000000002818BF4FF000404FF0000544BB23
:104CD00083E000BF40F62460C2F20000420700F506
:104CE000406200F1070122F0070218BF21F007001F
:104CF0000021A2F10803CCE90601CCF8043042E916
:104D00000211DCF80420191AC0E9002101208CF8F6
:104D100000004FF00040CCE90211002C4FF00005DC
:104D20005BD0204059D124F0070000F11002600749
:104D300008BF04F10802DCF80800511E81424CD281
:104D4000604650F818EFDEF8045095422BD2DEF89A
:104D50000010B9B174464D68954217D20B68ABB1DB
:104D60005D68954216D21868A0B14568954215D283
:104D700004689CB16568954214D22168A646002952
:104D8000E9D110E00CF118000DE000BF8E4620467E
:104D900009E000BF9E46084605E000BF864618466B
:104DA00001E000BFA646DCF804108E4514D001686F
:104DB000DEF80040AB1A112B04604CD30EEB020559
:104DC000680719D04FF0500080F31188BFF36F8F40
:104DD000BFF34F8FFEE700BF002501F09BF9680786
:104DE00059D04FF0500080F31188BFF36F8FBFF39D
:104DF0004F8F00BFFEE700BF0CF118006B60CEF8CC
:104E0000042000BF0368AB420AD21868A8420BD244
:104E10000368AB4204D218681A46A842F2D304E0F1
:104E20000246184601E000BF1A4654686B6816191E
:104E3000AE4202D1234415465360EC18844206D199
:104E4000DCF80440A04202D011C823446B60AA429F
:104E5000286018BF1560DEF80400DCE9022301F1C8
:104E60000805111A9942CCF8081038BFCCF80C107C
:104E70009CF8001000294FF0000118BF40F00040DE
:104E8000CEE90010DCF810000130CCF8100001F081
:104E900041F96807A5D1284670BD0000034644F6D5
:104EA0007D00C0F600004FF0807C21F0010103E995
:104EB0000310A3F1400043F8202C7047D0E90132E1
:104EC00001699A60D1F804C082688445536008BFC4
:104ED0004A6000220261086801380860086870476B
:104EE00041F63C43C2F20003036041F63C20C2F2AB
:104EF00000000860802010607047000042F2D0037C
:104F0000C2F20003036041F6D040C2F20000086024
:104F10004FF48070106070474FF0FF31024642F846
:104F2000081F00214260C0E90322016070470000B1
:104F3000002101617047000010B5D1F800E01EF1BA
:104F4000010213D000F1080462681368734511D898
:104F500053681C68744511D85A68146874450FD892
:104F600054682368A4467345EED90BE00269D2F871
:104F700004C007E09446224604E000BF9C4601E0DE
:104F800094461A46C1F804C0CCF808108A605160F3
:104F9000086101680131016010BD0000D0F800C057
:104FA000436808619A684B608A609A6899605160AA
:104FB0000CF10101016070474FF0500080F311883F
:104FC000BFF36F8FBFF34F8F40F20C00C2F20000AF
:104FD00001684A1C026009B1704700BF4EF60450D8
:104FE000CEF200000068000608BF70474FF0500086
:104FF00080F31188BFF36F8FBFF34F8FFEE7000080
:1050000040F20C00C2F20000016839B101390160C0
:1050100018BF7047002080F3118870474FF0500090
:1050200080F31188BFF36F8FBFF34F8FFEE700004F
:1050300070B5002808BF70BD40F23015C2F20005FF
:105040000446287854F8041C002818BF4FF000408C
:1050500008420DD0A4F1080632689AB14FF0500012
:1050600080F31188BFF36F8FBFF34F8FFEE700BF50
:105070004FF0500080F31188BFF36F8FBFF34F8F55
:10508000FEE700BF21EA000044F8040C00F014FA27
:1050900054F8041CA8680844A86005F1180000BF73
:1050A0000368B3420AD21868B04225D20368B342FB
:1050B00004D218681A46B042F2D301E002461846FC
:1050C0005368D418B44202D119441646516073187B
:1050D000834205D16B68984202D009C819447160B7
:1050E000B242306018BF1660686901306861BDE87F
:1050F000704001F00FB800BF1A465368D418B4428C
:10510000E5D1E1E74EF21000CEF20000002101608F
:10511000816040F20801C2F20001096844F6D352EE
:10512000C1F26202A1FB02124FF0FF3101EB9211BA
:10513000416007210160704741F6904CC2F2000CBB
:10514000DCF8002022B3634653F8082F42B36346CD
:1051500053F8102F52B3634653F8182F62B36346C7
:1051600053F8202F72B3634653F8282F82B3634657
:1051700053F8302F92B3634653F8382F002A18BFE4
:105180007047072219600CEBC2014860704700BFEE
:105190000022634619600CEBC2014860704700BFF3
:1051A000012219600CEBC2014860704702221960AD
:1051B0000CEBC20148607047032219600CEBC2017E
:1051C00048607047042219600CEBC20148607047C8
:1051D000052219600CEBC201486070470622196075
:1051E0000CEBC2014860704770B515460E46044688
:1051F000FFF7E2FE94F84400FF2804BF002084F883
:10520000440094F84500FF2804BF002084F84500BE
:10521000FFF7F6FEA06B28B12046BDE87040FFF70F
:1052200009BD00BF04F1240031462A4600F084F88D
:105230002046BDE87040FFF7FDBC000070B50028B7
:105240003FD040F28005C2F200050446686848B1CC
:105250004FF0500080F31188BFF36F8FBFF34F8F73
:10526000FEE700BF686801306860AE6828680430F7
:10527000FFF724FE50B12868A419446013D3E86AEC
:1052800029680431FFF758FE16E000BF28680121A5
:10529000C06AEA6801FA00F022EA0000E8602868C3
:1052A000A4194460EBD2A86A29680431FFF744FED0
:1052B000E869844238BFEC6100F02CFF002818BF79
:1052C00070BD4EF60450CEF200004FF080510160E8
:1052D000BFF34F8FBFF36F8F70BD000040F28001AE
:1052E000C2F200010A6B02608968416070470000E9
:1052F00040F28000C2F2000001210162704700000C
:1053000080B110B50C4640F28001C2F2000109687C
:105310001831FFF711FE20460121BDE81040FFF7CC
:1053200043B900BF4FF0500080F31188BFF36F8F77
:10533000BFF34F8FFEE7000070B588B140F28006E2
:10534000C2F200060C46316815461831FFF726FEFA
:1053500085B14FF0FF302946BDE87040FFF724B912
:105360004FF0500080F31188BFF36F8FBFF34F8F62
:10537000FEE700BFB56830680430FFF79FFD58B105
:1053800030686419446014D3F06A31680431BDE8B0
:105390007040FFF7D1BD00BF30680121C06AF268DC
:1053A00001FA00F022EA0000F060306864194460FD
:1053B000EAD2B06A31680431FFF7BEFDF069844279
:1053C00038BFF46170BD000010B588B00020CDE991
:1053D000050006A805A904AAFFF782FD0598002884
:1053E0003ED0069C002C45D05421049A0791079981
:1053F000542949D107992063022084F8510007A855
:105400000021CDE9001044F21D70C0F6000028A173
:1054100000230294FFF796F92046FFF705F9079855
:1054200040F28004C2F20004A061B0B100F0E8FED6
:10543000411C33D0012810D14FF0500080F3118867
:10544000BFF36F8FBFF34F8F4FF0FF30E06101204C
:1054500020610020A06000F06FF808B010BD00BF10
:105460004FF0500080F31188BFF36F8FBFF34F8F61
:10547000FEE700BF4FF0500080F31188BFF36F8F3D
:10548000BFF34F8FFEE700BF4FF0500080F311884D
:10549000BFF36F8FBFF34F8FFEE700BF4FF0500099
:1054A00080F31188BFF36F8FBFF34F8FFEE700BF0C
:1054B00049444C450000000040F28000C2F2000068
:1054C000416801314160704740F28000C2F2000043
:1054D000416800291EBF012101627047002101625D
:1054E000C168B1FA81F1C9B2C1F11F0140F6985209
:1054F00001EB8101C2F2000252F8213063B102EBEC
:10550000810252F8041F4968131D994211600DD0A1
:10551000C9680160704700BF4FF0500080F31188E8
:10552000BFF36F8FBFF34F8FFEE700BF4968116075
:10553000C968016070470000B0B584B04EF2004CFD
:10554000CEF2000C9CF800100291FF218CF80010A4
:105550009CF800108DF807109DF8071001F050021C
:1055600040F25011C2F200010A7007224A609DF910
:105570000720B2F1FF3F61DC032200BFD31C4B6068
:105580009DF8070040008DF807009DF90700B0F175
:10559000FF3F24DC931C4B609DF8070040008DF812
:1055A00007009DF90700B0F1FF3F18DC531C4B606A
:1055B0009DF8070040008DF807009DF90700B0F145
:1055C000FF3F0CDC4A609DF80700043A40008DF86C
:1055D00007009DF90700B0F1FF3FCFDD131D032B3E
:1055E0002CD14FF44070486002988CF80000DCF831
:1055F000200940F47000CCF82009DCF8200940F0C4
:105600007040CCF82009FFF77DFD40F20C04C2F297
:10561000000400252560FFF721F9FFF755FF0395EA
:1056200020684FF0500181F31188BFF36F8FBFF3F3
:105630004F8F013012D000BFFEE700BF4FF0500087
:1056400080F31188BFF36F8FBFF34F8FFEE700BF6A
:10565000039830B9039820B9039810B9039800282B
:10566000F6D0002004B0B0BDB0B54820FFF71CFB59
:10567000044660B30025012084F846502460C4E944
:105680000F05FFF799FC2068D4E90F12A56302FB10
:105690000103013901FB0201C4E90103FF20E160BC
:1056A00084F8440084F8450004F11000FFF734FC4E
:1056B00004F12400FFF730FCFFF7A2FC2046002194
:1056C000002200232560C4E9025500F0BDF8204601
:1056D000B0BD0000B0B582B0B1B3482001900198D0
:1056E00048283BD101980C460120002581F846004E
:1056F0000960C4E90F05FFF75FFC2068D4E90F12C9
:10570000A56302FB0103013901FB0201C4E90103A6
:10571000FF20E16084F8440084F8450004F11000A3
:10572000FFF7FAFB04F12400FFF7F6FBFFF768FC34
:1057300020460021002200232560C4E9025500F024
:1057400083F8204602B0B0BD4FF0500080F31188BE
:10575000BFF36F8FBFF34F8FFEE700BF4FF05000D6
:1057600080F31188BFF36F8FBFF34F8FFEE7000008
:1057700010B582B070B11C46B3B1F9B9F2B14FF0B7
:10578000500080F31188BFF36F8FBFF34F8F00BFBE
:10579000FEE700BF4FF0500080F31188BFF36F8F1A
:1057A000BFF34F8FFEE700BF4FF0500080F311882A
:1057B000BFF36F8FBFF34F8FFEE700BF51B14AB900
:1057C0004FF0500080F31188BFF36F8FBFF34F8FFE
:1057D000FEE700BF48230193019B482B2AD1019B80
:1057E000012384F84630002908BF22462260C4E91C
:1057F0000F01FFF7E1FB2068D4E90F12002302FB41
:10580000010C013901FB0201A363C4E9010CFF2073
:10581000E16084F8440084F8450004F11000FFF7CB
:105820007BFB04F12400FFF777FBFFF7E9FB204641
:1058300002B010BD4FF0500080F31188BFF36F8F9E
:10584000BFF34F8FFEE700002DE9F04F83B00292C7
:10585000C0B11D4617460E460446E9B1022D02D1DD
:10586000E06B01285AD100F025FB18BB17B34FF0AD
:10587000500080F31188BFF36F8FBFF34F8F00BFCD
:10588000FEE700BF4FF0500080F31188BFF36F8F29
:10589000BFF34F8FFEE700BF206C0028DED04FF033
:1058A000500080F31188BFF36F8FBFF34F8F00BF9D
:1058B000FEE700BFFFF780FBA06B022D65D0E16B18
:1058C000884262D30298002800F016816846FFF7EC
:1058D00005FDFFF795FBFFF7EFFDFFF76DFB94F874
:1058E0004400FF2804BF002084F8440094F84500D9
:1058F000FF2804BF002084F84500FFF781FB6846BD
:1059000002A900F01FFA98B12046FFF793F900F0C2
:1059100001FC002003B0BDE8F08F00BF4FF0500045
:1059200080F31188BFF36F8FBFF34F8FFEE700BF87
:1059300004F11008FFF740FBD4F83890E76BFFF74D
:105940005FFBB94516D102994046FFF7D9FC2046C6
:10595000FFF770F900F0DEFB88B94EF60450CEF286
:1059600000004FF080510160BFF34F8FBFF36F8F86
:1059700005E000BF2046FFF75DF900F0CBFBFFF725
:105980001BFBA06BE16B884264D2A76B226CDAB17F
:1059900025B3E0683146FAF7A5FCE168206C22687F
:1059A000091A9142E16003D2A16840420844E060D4
:1059B000A81EB0FA80F040093946002F18BF012117
:1059C00008403F1A17E000BF20680025A0B9A06872
:1059D00000F00AFBA56005460EE000BF6068314696
:1059E000FAF780FCD4E90101226C1044884260601F
:1059F00001D3206860600025781CA06354F8240F50
:105A0000A0B1204600F04CFB50B14EF60450CEF24F
:105A100000004FF080510160BFF34F8FBFF36F8FD5
:105A2000FFF7EEFA012003B0BDE8F08F002DF7D0AC
:105A30004EF60450CEF200004FF080510160BFF3EB
:105A40004F8FBFF36F8FFFF7DBFA012003B0BDE884
:105A5000F08F00BFE94602AF0CE000BF2046FFF721
:105A6000E9F800F057FBFFF7A7FAA06BE16B88425B
:105A7000FFF48BAF029800283ED0FFF7C1FAFFF782
:105A80001BFDFFF799FA94F84400FF2804BF00209B
:105A900084F8440094F84500FF2804BF002084F8EF
:105AA0004500FFF7ADFA4846394600F04BF90028AB
:105AB0007FF42AAFFFF780FAD4F838A0D4F83CB0CE
:105AC000FFF79EFADA45C9D102994046FFF718FC64
:105AD0002046FFF7AFF800F01DFB0028C3D14EF6BB
